{
  "_format": "hh-sol-artifact-1",
  "contractName": "Indigo",
  "sourceName": "contracts/Indigo.sol",
  "abi": [
    {
      "inputs": [
        {
          "internalType": "string",
          "name": "name_",
          "type": "string"
        },
        {
          "internalType": "string",
          "name": "symbol_",
          "type": "string"
        }
      ],
      "stateMutability": "nonpayable",
      "type": "constructor"
    },
    {
      "anonymous": false,
      "inputs": [
        {
          "indexed": true,
          "internalType": "address",
          "name": "owner",
          "type": "address"
        },
        {
          "indexed": true,
          "internalType": "address",
          "name": "spender",
          "type": "address"
        },
        {
          "indexed": false,
          "internalType": "uint256",
          "name": "value",
          "type": "uint256"
        }
      ],
      "name": "Approval",
      "type": "event"
    },
    {
      "anonymous": false,
      "inputs": [
        {
          "indexed": true,
          "internalType": "address",
          "name": "from",
          "type": "address"
        },
        {
          "indexed": true,
          "internalType": "address",
          "name": "to",
          "type": "address"
        },
        {
          "indexed": false,
          "internalType": "uint256",
          "name": "value",
          "type": "uint256"
        }
      ],
      "name": "Transfer",
      "type": "event"
    },
    {
      "inputs": [
        {
          "internalType": "address",
          "name": "owner",
          "type": "address"
        },
        {
          "internalType": "address",
          "name": "spender",
          "type": "address"
        }
      ],
      "name": "allowance",
      "outputs": [
        {
          "internalType": "uint256",
          "name": "",
          "type": "uint256"
        }
      ],
      "stateMutability": "view",
      "type": "function"
    },
    {
      "inputs": [
        {
          "internalType": "address",
          "name": "spender",
          "type": "address"
        },
        {
          "internalType": "uint256",
          "name": "amount",
          "type": "uint256"
        }
      ],
      "name": "approve",
      "outputs": [
        {
          "internalType": "bool",
          "name": "",
          "type": "bool"
        }
      ],
      "stateMutability": "nonpayable",
      "type": "function"
    },
    {
      "inputs": [
        {
          "internalType": "address",
          "name": "account",
          "type": "address"
        }
      ],
      "name": "balanceOf",
      "outputs": [
        {
          "internalType": "uint256",
          "name": "",
          "type": "uint256"
        }
      ],
      "stateMutability": "view",
      "type": "function"
    },
    {
      "inputs": [],
      "name": "decimals",
      "outputs": [
        {
          "internalType": "uint8",
          "name": "",
          "type": "uint8"
        }
      ],
      "stateMutability": "view",
      "type": "function"
    },
    {
      "inputs": [
        {
          "internalType": "address",
          "name": "spender",
          "type": "address"
        },
        {
          "internalType": "uint256",
          "name": "subtractedValue",
          "type": "uint256"
        }
      ],
      "name": "decreaseAllowance",
      "outputs": [
        {
          "internalType": "bool",
          "name": "",
          "type": "bool"
        }
      ],
      "stateMutability": "nonpayable",
      "type": "function"
    },
    {
      "inputs": [
        {
          "internalType": "address",
          "name": "spender",
          "type": "address"
        },
        {
          "internalType": "uint256",
          "name": "addedValue",
          "type": "uint256"
        }
      ],
      "name": "increaseAllowance",
      "outputs": [
        {
          "internalType": "bool",
          "name": "",
          "type": "bool"
        }
      ],
      "stateMutability": "nonpayable",
      "type": "function"
    },
    {
      "inputs": [],
      "name": "name",
      "outputs": [
        {
          "internalType": "string",
          "name": "",
          "type": "string"
        }
      ],
      "stateMutability": "view",
      "type": "function"
    },
    {
      "inputs": [
        {
          "internalType": "uint256",
          "name": "amount",
          "type": "uint256"
        }
      ],
      "name": "publicMint",
      "outputs": [],
      "stateMutability": "nonpayable",
      "type": "function"
    },
    {
      "inputs": [],
      "name": "symbol",
      "outputs": [
        {
          "internalType": "string",
          "name": "",
          "type": "string"
        }
      ],
      "stateMutability": "view",
      "type": "function"
    },
    {
      "inputs": [],
      "name": "totalSupply",
      "outputs": [
        {
          "internalType": "uint256",
          "name": "",
          "type": "uint256"
        }
      ],
      "stateMutability": "view",
      "type": "function"
    },
    {
      "inputs": [
        {
          "internalType": "address",
          "name": "to",
          "type": "address"
        },
        {
          "internalType": "uint256",
          "name": "amount",
          "type": "uint256"
        }
      ],
      "name": "transfer",
      "outputs": [
        {
          "internalType": "bool",
          "name": "",
          "type": "bool"
        }
      ],
      "stateMutability": "nonpayable",
      "type": "function"
    },
    {
      "inputs": [
        {
          "internalType": "address",
          "name": "from",
          "type": "address"
        },
        {
          "internalType": "address",
          "name": "to",
          "type": "address"
        },
        {
          "internalType": "uint256",
          "name": "amount",
          "type": "uint256"
        }
      ],
      "name": "transferFrom",
      "outputs": [
        {
          "internalType": "bool",
          "name": "",
          "type": "bool"
        }
      ],
      "stateMutability": "nonpayable",
      "type": "function"
    }
  ],
  "bytecode": "0x60806040523480156200001157600080fd5b5060405162001a1238038062001a128339818101604052810190620000379190620001f6565b8160039081620000489190620004c6565b5080600490816200005a9190620004c6565b505050620005ad565b6000604051905090565b600080fd5b600080fd5b600080fd5b600080fd5b6000601f19601f8301169050919050565b7f4e487b7100000000000000000000000000000000000000000000000000000000600052604160045260246000fd5b620000cc8262000081565b810181811067ffffffffffffffff82111715620000ee57620000ed62000092565b5b80604052505050565b60006200010362000063565b9050620001118282620000c1565b919050565b600067ffffffffffffffff82111562000134576200013362000092565b5b6200013f8262000081565b9050602081019050919050565b60005b838110156200016c5780820151818401526020810190506200014f565b60008484015250505050565b60006200018f620001898462000116565b620000f7565b905082815260208101848484011115620001ae57620001ad6200007c565b5b620001bb8482856200014c565b509392505050565b600082601f830112620001db57620001da62000077565b5b8151620001ed84826020860162000178565b91505092915050565b6000806040838503121562000210576200020f6200006d565b5b600083015167ffffffffffffffff81111562000231576200023062000072565b5b6200023f85828601620001c3565b925050602083015167ffffffffffffffff81111562000263576200026262000072565b5b6200027185828601620001c3565b9150509250929050565b600081519050919050565b7f4e487b7100000000000000000000000000000000000000000000000000000000600052602260045260246000fd5b60006002820490506001821680620002ce57607f821691505b602082108103620002e457620002e362000286565b5b50919050565b60008190508160005260206000209050919050565b60006020601f8301049050919050565b600082821b905092915050565b6000600883026200034e7fffffffffffffffffffffffffffffffffffffffffffffffffffffffffffffffff826200030f565b6200035a86836200030f565b95508019841693508086168417925050509392505050565b6000819050919050565b6000819050919050565b6000620003a7620003a16200039b8462000372565b6200037c565b62000372565b9050919050565b6000819050919050565b620003c38362000386565b620003db620003d282620003ae565b8484546200031c565b825550505050565b600090565b620003f2620003e3565b620003ff818484620003b8565b505050565b5b8181101562000427576200041b600082620003e8565b60018101905062000405565b5050565b601f82111562000476576200044081620002ea565b6200044b84620002ff565b810160208510156200045b578190505b620004736200046a85620002ff565b83018262000404565b50505b505050565b600082821c905092915050565b60006200049b600019846008026200047b565b1980831691505092915050565b6000620004b6838362000488565b9150826002028217905092915050565b620004d1826200027b565b67ffffffffffffffff811115620004ed57620004ec62000092565b5b620004f98254620002b5565b620005068282856200042b565b600060209050601f8311600181146200053e576000841562000529578287015190505b620005358582620004a8565b865550620005a5565b601f1984166200054e86620002ea565b60005b82811015620005785784890151825560018201915060208501945060208101905062000551565b8683101562000598578489015162000594601f89168262000488565b8355505b6001600288020188555050505b505050505050565b61145580620005bd6000396000f3fe608060405234801561001057600080fd5b50600436106100b45760003560e01c80633950935111610071578063395093511461018f57806370a08231146101bf57806395d89b41146101ef578063a457c2d71461020d578063a9059cbb1461023d578063dd62ed3e1461026d576100b4565b806306fdde03146100b9578063095ea7b3146100d757806318160ddd1461010757806323b872dd146101255780632db1154414610155578063313ce56714610171575b600080fd5b6100c161029d565b6040516100ce9190610c99565b60405180910390f35b6100f160048036038101906100ec9190610d54565b61032f565b6040516100fe9190610daf565b60405180910390f35b61010f610352565b60405161011c9190610dd9565b60405180910390f35b61013f600480360381019061013a9190610df4565b61035c565b60405161014c9190610daf565b60405180910390f35b61016f600480360381019061016a9190610e47565b61038b565b005b61017961039f565b6040516101869190610e90565b60405180910390f35b6101a960048036038101906101a49190610d54565b6103a4565b6040516101b69190610daf565b60405180910390f35b6101d960048036038101906101d49190610eab565b6103db565b6040516101e69190610dd9565b60405180910390f35b6101f7610423565b6040516102049190610c99565b60405180910390f35b61022760048036038101906102229190610d54565b6104b5565b6040516102349190610daf565b60405180910390f35b61025760048036038101906102529190610d54565b61052c565b6040516102649190610daf565b60405180910390f35b61028760048036038101906102829190610ed8565b61054f565b6040516102949190610dd9565b60405180910390f35b6060600380546102ac90610f47565b80601f01602080910402602001604051908101604052809291908181526020018280546102d890610f47565b80156103255780601f106102fa57610100808354040283529160200191610325565b820191906000526020600020905b81548152906001019060200180831161030857829003601f168201915b5050505050905090565b60008061033a6105d6565b90506103478185856105de565b600191505092915050565b6000600254905090565b6000806103676105d6565b90506103748582856107a7565b61037f858585610833565b60019150509392505050565b61039c6103966105d6565b82610aa9565b50565b600090565b6000806103af6105d6565b90506103d08185856103c1858961054f565b6103cb9190610fa7565b6105de565b600191505092915050565b60008060008373ffffffffffffffffffffffffffffffffffffffff1673ffffffffffffffffffffffffffffffffffffffff168152602001908152602001600020549050919050565b60606004805461043290610f47565b80601f016020809104026020016040519081016040528092919081815260200182805461045e90610f47565b80156104ab5780601f10610480576101008083540402835291602001916104ab565b820191906000526020600020905b81548152906001019060200180831161048e57829003601f168201915b5050505050905090565b6000806104c06105d6565b905060006104ce828661054f565b905083811015610513576040517f08c379a000000000000000000000000000000000000000000000000000000000815260040161050a9061104d565b60405180910390fd5b61052082868684036105de565b60019250505092915050565b6000806105376105d6565b9050610544818585610833565b600191505092915050565b6000600160008473ffffffffffffffffffffffffffffffffffffffff1673ffffffffffffffffffffffffffffffffffffffff16815260200190815260200160002060008373ffffffffffffffffffffffffffffffffffffffff1673ffffffffffffffffffffffffffffffffffffffff16815260200190815260200160002054905092915050565b600033905090565b600073ffffffffffffffffffffffffffffffffffffffff168373ffffffffffffffffffffffffffffffffffffffff160361064d576040517f08c379a0000000000000000000000000000000000000000000000000000000008152600401610644906110df565b60405180910390fd5b600073ffffffffffffffffffffffffffffffffffffffff168273ffffffffffffffffffffffffffffffffffffffff16036106bc576040517f08c379a00000000000000000000000000000000000000000000000000000000081526004016106b390611171565b60405180910390fd5b80600160008573ffffffffffffffffffffffffffffffffffffffff1673ffffffffffffffffffffffffffffffffffffffff16815260200190815260200160002060008473ffffffffffffffffffffffffffffffffffffffff1673ffffffffffffffffffffffffffffffffffffffff168152602001908152602001600020819055508173ffffffffffffffffffffffffffffffffffffffff168373ffffffffffffffffffffffffffffffffffffffff167f8c5be1e5ebec7d5bd14f71427d1e84f3dd0314c0f7b2291e5b200ac8c7c3b9258360405161079a9190610dd9565b60405180910390a3505050565b60006107b3848461054f565b90507fffffffffffffffffffffffffffffffffffffffffffffffffffffffffffffffff811461082d578181101561081f576040517f08c379a0000000000000000000000000000000000000000000000000000000008152600401610816906111dd565b60405180910390fd5b61082c84848484036105de565b5b50505050565b600073ffffffffffffffffffffffffffffffffffffffff168373ffffffffffffffffffffffffffffffffffffffff16036108a2576040517f08c379a00000000000000000000000000000000000000000000000000000000081526004016108999061126f565b60405180910390fd5b600073ffffffffffffffffffffffffffffffffffffffff168273ffffffffffffffffffffffffffffffffffffffff1603610911576040517f08c379a000000000000000000000000000000000000000000000000000000000815260040161090890611301565b60405180910390fd5b61091c838383610bff565b60008060008573ffffffffffffffffffffffffffffffffffffffff1673ffffffffffffffffffffffffffffffffffffffff168152602001908152602001600020549050818110156109a2576040517f08c379a000000000000000000000000000000000000000000000000000000000815260040161099990611393565b60405180910390fd5b8181036000808673ffffffffffffffffffffffffffffffffffffffff1673ffffffffffffffffffffffffffffffffffffffff16815260200190815260200160002081905550816000808573ffffffffffffffffffffffffffffffffffffffff1673ffffffffffffffffffffffffffffffffffffffff168152602001908152602001600020600082825401925050819055508273ffffffffffffffffffffffffffffffffffffffff168473ffffffffffffffffffffffffffffffffffffffff167fddf252ad1be2c89b69c2b068fc378daa952ba7f163c4a11628f55a4df523b3ef84604051610a909190610dd9565b60405180910390a3610aa3848484610c04565b50505050565b600073ffffffffffffffffffffffffffffffffffffffff168273ffffffffffffffffffffffffffffffffffffffff1603610b18576040517f08c379a0000000000000000000000000000000000000000000000000000000008152600401610b0f906113ff565b60405180910390fd5b610b2460008383610bff565b8060026000828254610b369190610fa7565b92505081905550806000808473ffffffffffffffffffffffffffffffffffffffff1673ffffffffffffffffffffffffffffffffffffffff168152602001908152602001600020600082825401925050819055508173ffffffffffffffffffffffffffffffffffffffff16600073ffffffffffffffffffffffffffffffffffffffff167fddf252ad1be2c89b69c2b068fc378daa952ba7f163c4a11628f55a4df523b3ef83604051610be79190610dd9565b60405180910390a3610bfb60008383610c04565b5050565b505050565b505050565b600081519050919050565b600082825260208201905092915050565b60005b83811015610c43578082015181840152602081019050610c28565b60008484015250505050565b6000601f19601f8301169050919050565b6000610c6b82610c09565b610c758185610c14565b9350610c85818560208601610c25565b610c8e81610c4f565b840191505092915050565b60006020820190508181036000830152610cb38184610c60565b905092915050565b600080fd5b600073ffffffffffffffffffffffffffffffffffffffff82169050919050565b6000610ceb82610cc0565b9050919050565b610cfb81610ce0565b8114610d0657600080fd5b50565b600081359050610d1881610cf2565b92915050565b6000819050919050565b610d3181610d1e565b8114610d3c57600080fd5b50565b600081359050610d4e81610d28565b92915050565b60008060408385031215610d6b57610d6a610cbb565b5b6000610d7985828601610d09565b9250506020610d8a85828601610d3f565b9150509250929050565b60008115159050919050565b610da981610d94565b82525050565b6000602082019050610dc46000830184610da0565b92915050565b610dd381610d1e565b82525050565b6000602082019050610dee6000830184610dca565b92915050565b600080600060608486031215610e0d57610e0c610cbb565b5b6000610e1b86828701610d09565b9350506020610e2c86828701610d09565b9250506040610e3d86828701610d3f565b9150509250925092565b600060208284031215610e5d57610e5c610cbb565b5b6000610e6b84828501610d3f565b91505092915050565b600060ff82169050919050565b610e8a81610e74565b82525050565b6000602082019050610ea56000830184610e81565b92915050565b600060208284031215610ec157610ec0610cbb565b5b6000610ecf84828501610d09565b91505092915050565b60008060408385031215610eef57610eee610cbb565b5b6000610efd85828601610d09565b9250506020610f0e85828601610d09565b9150509250929050565b7f4e487b7100000000000000000000000000000000000000000000000000000000600052602260045260246000fd5b60006002820490506001821680610f5f57607f821691505b602082108103610f7257610f71610f18565b5b50919050565b7f4e487b7100000000000000000000000000000000000000000000000000000000600052601160045260246000fd5b6000610fb282610d1e565b9150610fbd83610d1e565b9250828201905080821115610fd557610fd4610f78565b5b92915050565b7f45524332303a2064656372656173656420616c6c6f77616e63652062656c6f7760008201527f207a65726f000000000000000000000000000000000000000000000000000000602082015250565b6000611037602583610c14565b915061104282610fdb565b604082019050919050565b600060208201905081810360008301526110668161102a565b9050919050565b7f45524332303a20617070726f76652066726f6d20746865207a65726f2061646460008201527f7265737300000000000000000000000000000000000000000000000000000000602082015250565b60006110c9602483610c14565b91506110d48261106d565b604082019050919050565b600060208201905081810360008301526110f8816110bc565b9050919050565b7f45524332303a20617070726f766520746f20746865207a65726f20616464726560008201527f7373000000000000000000000000000000000000000000000000000000000000602082015250565b600061115b602283610c14565b9150611166826110ff565b604082019050919050565b6000602082019050818103600083015261118a8161114e565b9050919050565b7f45524332303a20696e73756666696369656e7420616c6c6f77616e6365000000600082015250565b60006111c7601d83610c14565b91506111d282611191565b602082019050919050565b600060208201905081810360008301526111f6816111ba565b9050919050565b7f45524332303a207472616e736665722066726f6d20746865207a65726f20616460008201527f6472657373000000000000000000000000000000000000000000000000000000602082015250565b6000611259602583610c14565b9150611264826111fd565b604082019050919050565b600060208201905081810360008301526112888161124c565b9050919050565b7f45524332303a207472616e7366657220746f20746865207a65726f206164647260008201527f6573730000000000000000000000000000000000000000000000000000000000602082015250565b60006112eb602383610c14565b91506112f68261128f565b604082019050919050565b6000602082019050818103600083015261131a816112de565b9050919050565b7f45524332303a207472616e7366657220616d6f756e742065786365656473206260008201527f616c616e63650000000000000000000000000000000000000000000000000000602082015250565b600061137d602683610c14565b915061138882611321565b604082019050919050565b600060208201905081810360008301526113ac81611370565b9050919050565b7f45524332303a206d696e7420746f20746865207a65726f206164647265737300600082015250565b60006113e9601f83610c14565b91506113f4826113b3565b602082019050919050565b60006020820190508181036000830152611418816113dc565b905091905056fea2646970667358221220d27e37eec7d8a16f1e9d21d47b94b373c8fd06cf6876d71c46f9e8bf048bd5dc64736f6c63430008110033",
  "linkReferences": {},
  "deployedLinkReferences": {}
}